:020000040800F2
:10000000008001207D270008192700081B27000811
:100010001D2700081F2700082127000800000000F6
:10002000000000000000000000000000232700087E
:1000300025270008000000002727000829270008BE
:10004000CD270008CD270008CD270008CD270008C0
:10005000CD270008CD270008CD270008CD270008B0
:10006000CD270008CD270008CD270008CD270008A0
:10007000CD270008CD270008CD270008CD27000890
:10008000CD270008CD270008CD270008000000007C
:10009000000000000000000000000000CD27000864
:1000A000CD270008CD270008CD270008CD27000860
:1000B000CD270008CD270008CD270008CD27000850
:1000C000CD270008CD270008CD270008CD27000840
:1000D000CD270008CD270008CD270008000000002C
:1000E000CD270008CD270008CD270008000000001C
:1000F000000000000000000000000000CD27000804
:1001000000000000CD270008CD270008CD270008FB
:1001100000000000000000000000000000000000DF
:10012000CD270008CD270008CD270008CD270008DF
:10013000CD270008000000000000000000000000C3
:10014000000000000000000000000000CD270008B3
:10015000CD270008CD270008CD270008CD270008AF
:10016000CD270008CD270008000000000000000097
:10017000000000000000000000000000000000007F
:1001800000000000CD270008000000000000000073
:04019000CD2700086F
:1001940010B5054C237833B9044B13B10448AFF3BD
:1001A40000800123237010BD0C000020000000001B
:1001B400D828000808B5034B1BB103490348AFF323
:1001C400008008BD0000000010000020D8280008AE
:1001D40053B94AB9002908BF00281CBF4FF0FF31AA
:1001E4004FF0FF3000F072B9ADF1080C6DE904CEA8
:1001F40000F006F8DDF804E0DDE9022304B07047FE
:100204002DE9F047089E04468846002B4BD18A42CC
:10021400154667D9B2FA82F24AB1C2F1200701FA4F
:1002240002F320FA07F7954047EA030894404FEA9F
:10023400154E230CB8FBFEF71FFA85FC0EFB17883E
:1002440043EA084307FB0CF1994209D9EB1807F17B
:10025400FF3080F01B81994240F21881023F2B4409
:100264005B1AA4B2B3FBFEF00EFB103344EA034462
:1002740000FB0CFCA44509D92C1900F1FF3380F0D4
:100284000781A44540F2048102382C4440EA074027
:10029400A4EB0C0400271EB1D4400023C6E900439C
:1002A4003946BDE8F0878B4209D9002E00F0EB8077
:1002B4000027C6E9000138463946BDE8F087B3FA9D
:1002C40083F7002F47D18B4202D3824200F2FA8097
:1002D400841A61EB030301209846002EE0D0C6E99E
:1002E4000048DDE702B9FFDEB2FA82F2002A40F0EC
:1002F4008F80491B4FEA154E1FFA85F80127B1FB81
:10030400FEFC230C0EFB1C1143EA014308FB0CF119
:10031400994207D9EB180CF1FF3002D2994200F24E
:10032400CD808446591AA3B2B1FBFEF00EFB101423
:1003340043EA044408FB00F8A04507D92C1900F14E
:10034400FF3302D2A04500F2B6801846A4EB08049D
:1003540040EA0C409FE7C7F1200CBB4022FA0CFE98
:100364004EEA030E01FA07F420FA0CF521FA0CF315
:100374004FEA1E482543B3FBF8F92C0C08FB19334C
:100384001FFA8EFA44EA034309FB0AF49C4202FA78
:1003940007F200FA07F10BD91EEB030309F1FF3052
:1003A40080F087809C4240F28480A9F10209734462
:1003B4001B1BADB2B3FBF8F008FB103345EA034452
:1003C40000FB0AFAA24508D91EEB040400F1FF332E
:1003D4006BD2A24569D90238744440EA0940A0FBB3
:1003E4000289A4EB0A044C45C2464B4654D351D06F
:1003F400002E69D0B1EB0A0564EB030404FA0CFC8B
:10040400FD40FC404CEA0505C6E90054002747E7D7
:10041400C2F1200320FA03F7954001FA02F021FA11
:1004240003F34FEA154E3843010CB3FBFEF71FFAF2
:1004340085F80EFB173341EA034107FB08F38B42AF
:1004440004FA02F407D9691807F1FF3C2FD28B4252
:100454002DD9023F2944CB1A81B2B3FBFEF00EFB27
:10046400103341EA034100FB08F38B4207D96918B2
:1004740000F1FF3C17D28B4215D902382944C91A1E
:1004840040EA07473BE73746304609E70746E7E6D1
:100494001846FBE64145ABD2B8EB020A69EB0E0203
:1004A40001381346A4E76046E9E7184695E767462E
:1004B400D1E781467CE702382C4447E7ACF1020CD3
:1004C4002B442FE7384608E73746E9E6704700BF74
:1004D40010B504460E4B18784FF47A73B3FBF0F35F
:1004E4000C4A1068B0FBF3F000F09CF868B90F2CCC
:1004F40001D901200AE0002221464FF0FF3000F02C
:100504005DF8034B5C60002000E0012010BD00BFDB
:10051400000000200800002008B50B4B1A6842F4C4
:1005240000721A601A6842F480621A601A6842F40F
:1005340080721A60032000F02FF80020FFF7C8FF34
:1005440002F058F8002008BD003C0240034A11683C
:10055400034B1B780B441360704700BF2800002036
:1005640000000020014B1868704700BF28000020DD
:1005740038B50446FFF7F6FF0546B4F1FF3F02D055
:10058400044B1B781C44FFF7EDFF401BA042FAD339
:1005940038BD00BF00000020074AD36823F4E0639D
:1005A4001B041B0C000200F4E060184340F0BF6021
:1005B40040F40030D060704700ED00E030B4174BD9
:1005C400DB68C3F30223C3F10704042C28BF04240B
:1005D4001D1D062D18D9033B4FF0FF3505FA04F411
:1005E40021EA0401994005FA03F322EA03031943BB
:1005F40000280BDB0901C9B200F1604000F561403D
:1006040080F8001330BC70470023E5E700F00F00CA
:100614000901C9B2024B1954F4E700BF00ED00E030
:1006240014ED00E00138B0F1807F0AD2064B586027
:10063400064AF02182F823100020986007221A60ED
:1006440070470120704700BF10E000E000ED00E0BB
:1006540000230F2B00F2C580F0B482B039E00422ED
:1006640000E00022B2403A4302345E4E46F82420B1
:100674005D4A1468EA4302EA04064F6817F4803FAF
:1006840001D045EA0406584C2660646802EA040670
:100694004F6817F4003F01D045EA0406524C6660E7
:1006A400A46802EA04064F6817F4801F01D045EAE3
:1006B40004064D4CA660E46822404E6816F4001F00
:1006C40001D045EA0402484CE26001330F2B00F2EA
:1006D400858001229A400C6804EA0205AA42F4D1FA
:1006E4004C68022C01D0122C10D1DE08083650F8C8
:1006F40026C003F00704A7000F24BC402CEA040C16
:100704000C69BC4044EA0C0440F8264004685F00CD
:100714000326BE40F64306EA040C4C6804F00304C6
:10072400BC4044EA0C0404604C6804F1FF3CBCF196
:10073400010F03D9112C01D0122C10D1846806EAC0
:10074400040CCC68BC4044EA0C048460446824EA89
:1007540002024C68C4F300149C4014434460C26811
:1007640016408A68BA403243C2604A6812F0805F19
:10077400ABD0002201921D4A546C44F4804454646A
:10078400526C02F480420192019A9C08A61C154AFC
:1007940052F8267003F0030296000F22B24027EAB3
:1007A4000207134A90423FF45CAF02F58062904224
:1007B4000ED002F5806290420CD002F58062904225
:1007C4000AD002F5806290423FF449AF072249E71C
:1007D400012247E7022245E7032243E702B0F0BCC7
:1007E4007047704700380140003C01400038024027
:1007F4000000024012B909048161704781617047A9
:1008040003685A6912F4806F11D06FF480625A61E0
:1008140000230363202280F83D2080F83E30026CE0
:1008240042F00402026480F83C300120704700204A
:100834007047F8B506460C4617461D4622E0FFF7FA
:1008440091FE069BC01AA84200D8DDB90023336389
:10085400202286F83D2086F83E30326C42F0200299
:10086400326486F83C3001201AE033685B6924EA7C
:1008740003039BB2B3FA83F35B099F420FD1B5F133
:10088400FF3FDCD1C4F30743012BEED033689B69EF
:1008940024EA03039BB2B3FA83F35B09EDE7002078
:1008A400F8BDF8B504460D4616461F463CE01A68E6
:1008B40042F400721A6023686FF480625A61002364
:1008C4002363202284F83D2084F83E30226C42F0D9
:1008D4000402226484F83C30012033E0FFF742FE36
:1008E400C01BB04200D8FEB900232363202284F841
:1008F4003D2084F83E30226C42F02002226484F8C9
:100904003C3001201EE023685B6925EA03039BB2A7
:10091400003318BF0123A3B123685A6912F4806F0E
:10092400C5D1B6F1FF3FD9D1C5F30743012BEAD0B6
:1009340023689B6925EA03039BB2003318BF012394
:10094400E9E70020F8BD0000F0B583B004460F4687
:1009540015461E46C36A082B0DD0012B0BD013F588
:10096400803F08D0036B122B0AD10268136843F44A
:100974008073136004E02268136843F48073136087
:1009840000962B4600224FF001112046FFF751FF3D
:1009940018BB2369B3F5804F0DD1236807F0FE0718
:1009A4001F6133462A4610492046FFF77AFF034663
:1009B400A0B1012312E0FB11226803F0060343F007
:1009C400F003136133462A4608492046FFF769FFBE
:1009D40038B92368FFB21F61E3E70123184603B067
:1009E400F0BD0123FAE700BF020001000800010086
:1009F4002DE9F04184B004460D4616461F46C26AEE
:100A040001680B6843F480630B60082A0DD0012A47
:100A14000BD012F5803F08D0036B112B0AD102686A
:100A2400136843F48073136004E02268136843F48A
:100A3400807313600097334600224FF00111204663
:100A4400FFF7F7FE002849D12369B3F5804F0FD192
:100A5400236845F00105EDB21D613B46324623494A
:100A64002046FFF71EFF0346002838D0012336E056
:100A74004FEAE51808F00608236848F0F0021A6106
:100A84003B4632461A492046FFF70BFF08B10123C3
:100A940025E02368EDB21D613B46324613492046EA
:100AA400FFF7FFFE08B1012319E000220392236837
:100AB40059690391996903910399196841F4807103
:100AC4001960009733464FF001112046FFF7B1FE3D
:100AD40048B9226848F0F1031361BEE701231846C0
:100AE40004B0BDE8F0810123F9E700BF0200010072
:100AF4000800010070B504460D46164623685B697C
:100B040013F0800F1CD12046FFF77AFED0B9B5F15F
:100B1400FF3FF3D0FFF726FD801BA84201D8002D2C
:100B2400ECD100232363202284F83D2084F83E3056
:100B3400226C42F02002226484F83C30012000E060
:100B4400002070BD0120FCE770B504460D46164632
:100B540023685B6913F0040F1CD12046FFF750FE95
:100B6400D0B9B5F1FF3FF3D0FFF7FCFC801BA842DE
:100B740001D8002DECD100232363202284F83D20EA
:100B840084F83E30226C42F02002226484F83C3027
:100B9400012000E0002070BD0120FCE770B505468F
:100BA4000C4616462B685A6912F0400F29D15A692F
:100BB40012F0100F15D1FFF7D5FC801BA04201D80D
:100BC400002CEFD100232B63202285F83D2085F8EB
:100BD4003E302A6C42F020022A6485F83C30012021
:100BE40070BD6FF010025A6100232B63202285F838
:100BF4003D2085F83E302A6C2A6485F83C3001207B
:100C0400EEE70020ECE70000002800F0BE80F8B515
:100C1400044690F83D30002B6BD0242384F83D30FB
:100C24002268136823F00103136000F08BFE6268EE
:100C3400584B9A4262D8584B98428CBF00230123E8
:100C4400002B40F0A480554BA3FB00239B0C216890
:100C54004A6822F03F021A434A6025682A6A22F051
:100C64003F0266684B498E424ED8013313432B62D0
:100C74002568E96921F44F4121F0FF016368454A81
:100C840093424BD801385B00B0FBF3F30133C3F359
:100C94000B03042B38BF04230B43EB6121680B685F
:100CA40023F0C003E269206A024313430B60216806
:100CB4008B6823F4034323F0FF032269E0680243B3
:100CC40013438B602168CB6823F0FF036269A0693A
:100CD40002431343CB602268136843F0010313609B
:100CE40000202064202384F83D30206384F83E00F3
:100CF400F8BD80F83C3001F09DFC8EE7284B98420B
:100D04008CBF002301239BE74FF4967101FB03F38F
:100D14002449A1FB03139B090133A7E7A268BAB9CD
:100D2400461E03EB4307B6FBF7F60136C6F30B0684
:100D3400B6FA86F6760936BBC2B9013803EB43032B
:100D4400B0FBF3F30133C3F30B0242F40043A3E714
:100D5400461E03EB830707EB8707B6FBF7F601365E
:100D6400C6F30B06B6FA86F67609E4E7013803EB18
:100D7400830303EB8303B0FBF3F20132C2F30B02F0
:100D840042F4404388E7012386E7012070470120AD
:100D9400AEE700BFA08601007F841E0083DE1B43F4
:100DA400FF083D00D34D62102DE9F04184B00446A4
:100DB4000E4690461F46FFF7D5FB94F83D30DBB254
:100DC400202B04D00226304604B0BDE8F08105464D
:100DD4000090192301224F492046FFF72AFD0028DD
:100DE40040F0918094F83C30012B00F08E80012378
:100DF40084F83C3023681A6812F0010F03D11A6892
:100E040042F001021A602268136823F4006313603D
:100E1400212384F83D30102384F83E3000232364DA
:100E2400C4F824806785638D23853B4BE3622B469E
:100E34000A9A31462046FFF787FD0646002866D108
:100E44000023039323685A6903929B690393039BCA
:100E540012E0236C042B01D00126B4E72268136846
:100E640043F4007313600126ADE72A460A9920462D
:100E7400FFF76AFE00282CD1238D002B35D02A469B
:100E84000A992046FFF736FE0028E2D1626A2368F9
:100E940012781A61616A4B1C6362638D013B9BB2D9
:100EA4006385238D013B9BB223852268506910F032
:100EB400040FDAD0002BD8D04B781361636A013366
:100EC4006362638D013B9BB26385238D013B238564
:100ED400CBE7236C042B01D0012674E72268136846
:100EE40043F40073136001266DE72268136843F42A
:100EF40000731360202384F83D30002384F83E30CF
:100F040084F83C305FE702265DE702265BE70126B2
:100F140059E700BF020010000000FFFF2DE9F04177
:100F240086B004460E4690461F46FFF71BFB94F816
:100F34003D30DBB2202B04D00226304606B0BDE89B
:100F4400F08105460090192301229E492046FFF7AF
:100F540070FC002840F0348194F83C30012B00F000
:100F64003781012384F83C3023681A6812F0010F9A
:100F740003D11A6842F001021A602268136823F44C
:100F840000631360222384F83D30102384F83E303C
:100F940000232364C4F824806785638D23858A4BEA
:100FA400E3622B460C9A31462046FFF721FD0646A4
:100FB400002840F00F81238D5BB9029323685A699E
:100FC40002929A690292029A1A6842F400721A60B2
:100FD40077E0012B0FD0022B1FD02268136843F453
:100FE400806313600023059323685A6905929B6903
:100FF4000593059B65E02268136823F480631360FE
:101004000023039323685A6903929A690392039A0B
:101014001A6842F400721A6053E02268136823F4D9
:10102400806313602268136843F400631360002331
:10103400049323685A6904929B690493049B40E0D7
:101044002A460C992046FFF7A9FD002840F0C480E9
:1010540023681A69636A1A70636A01336362238DB1
:10106400013B2385638D013B9BB2638529E0009599
:101074000C9B002255492046FFF7DBFB002840F07B
:10108400AD802268136843F40073136023681A69FF
:10109400636A1A70626A531C6362238D013B238561
:1010A400638D013B9BB2638523681B695370636A3C
:1010B40001336362238D013B2385638D013B9BB226
:1010C4006385238D002B72D0032B49D8012BB7D015
:1010D400022BCCD000950C9B00223C492046FFF704
:1010E400A8FB00287CD12268136823F48063136072
:1010F40023681A69636A1A70636A01336362238D11
:10110400013B2385638D013B9BB2638500950C9B5A
:1011140000222E492046FFF78CFB002862D122686A
:10112400136843F40073136023681A69636A1A70BE
:10113400626A531C6362238D013B2385638D013BEB
:101144009BB2638523681B695370636A01336362CE
:10115400238D013B2385638D013B9BB26385B0E7FF
:101164002A460C992046FFF719FD00283CD1236834
:101174001A69636A1A70626A531C6362238D013BA5
:101184002385638D013B9BB263852368596911F004
:10119400040F96D01B695370636A01336362238D15
:1011A400013B2385638D013B9BB2638589E7202343
:1011B40084F83D30002384F83E3084F83C30BCE6AB
:1011C4000226BAE6020010000000FFFF040001003E
:1011D4000226B2E60126B0E60126AEE60126ACE61A
:1011E4000126AAE60126A8E60126A6E62DE9F04393
:1011F40085B00446884691461D46FFF7B3F994F836
:101204003D30DBB2202B04D00223184605B0BDE8E4
:10121400F083064600901923012254492046FFF723
:1012240008FB002840F0978094F83C30012B00F034
:101234009480012384F83C3023681A6812F0010F6B
:1012440003D11A6842F001021A602268136823F479
:1012540000631360242384F83D3000232364A3F542
:101264008033E362012734E0A02384F83D3023680F
:101274005A69C2F340025969C1F3802194F83D30A0
:10128400DBB2A02B09D042B939B9FFF76BF9801B47
:10129400A842E9D8002DEAD1E6E7202384F83D30BE
:1012A40023685A6912F0020F31D11A6842F40072AD
:1012B4001A6023686FF480625A6100961923012230
:1012C4002A492046FFF7B5FA00284CD101374F458B
:1012D40039D22268136843F48073136000962B4656
:1012E40000224FF001112046FFF7A3FA002836D15F
:1012F400236808F0FE021A61FFF734F906462368F2
:101304005A69C2F340025969C1F38021B6E71A68E9
:1013140042F400721A600023039323685A6903920B
:101324009B690393039B0096192301220F492046CE
:10133400FFF77FFA0346A0B9202284F83D2000225B
:1013440084F83C2061E7202384F83D30002384F8AE
:101354003C30012359E7022357E7022355E70123D1
:1013640053E7012351E701234FE700BF02001000B8
:10137400002800F0BB8170B582B00446036813F006
:10138400010F3BD0A74B9B6803F00C03042B2CD01C
:10139400A44B9B6803F00C03082B21D06368B3F5BE
:1013A400803F4FD0B3F5A02F52D09E4B1A6822F441
:1013B40080321A601A6822F480221A606368002B53
:1013C40050D0FFF7CFF80546964B1B6813F4003F47
:1013D40014D1FFF7C7F8401B6428F5D903208AE12C
:1013E400904B5B6813F4800FD8D08E4B1B6813F4BA
:1013F400003F03D06368002B00F07A81236813F068
:10140400020F55D0874B9B6813F00C0F3ED0854BD1
:101414009B6803F00C03082B33D0E368002B68D0DF
:10142400814B01221A60FFF79DF805467D4B1B682E
:1014340013F0020F54D1FFF795F8401B0228F5D999
:10144400032058E1774A136843F480331360B5E707
:10145400744B1A6842F480221A601A6842F480328B
:101464001A60ABE7FFF77EF805466E4B1B6813F472
:10147400003FC3D0FFF776F8401B6428F5D903205A
:1014840039E1684B5B6813F4800FC6D1654B1B6868
:1014940013F0020F04D0E368012B01D001202AE1EC
:1014A400604A136823F0F803216943EAC103136017
:1014B400236813F0080F40D0636963B35B4B0122C8
:1014C4001A60FFF74FF80546564B5B6F13F0020F97
:1014D40033D1FFF747F8401B0228F5D903200AE16E
:1014E400504A136823F0F803216943EAC1031360E7
:1014F400DEE74D4B00221A60FFF734F80546494BEE
:101504001B6813F0020FD3D0FFF72CF8401B0228FE
:10151400F5D90320EFE0454B00221A60FFF722F8CB
:101524000546404B5B6F13F0020F06D0FFF71AF825
:10153400401B0228F5D90320DDE0236813F0040FD3
:1015440079D0384B1B6C13F0805F33D100230193A7
:10155400344B1A6C42F080521A641B6C03F08053B3
:101564000193019B0125324B1B6813F4807F23D028
:10157400A368012B34D0052B38D02A4B1A6F22F0E4
:1015840001021A671A6F22F004021A67A368002B7B
:1015940036D0FEF7E7FF0646224B1B6F13F0020F0F
:1015A40048D1FEF7DFFF801B41F288339842F3D91C
:1015B4000320A0E00025D6E71D4A136843F4807396
:1015C4001360FEF7CFFF0646194B1B6813F4807FA8
:1015D400CED1FEF7C7FF801B0228F5D903208AE08D
:1015E400104A136F43F001031367CFE70D4B1A6FD3
:1015F40042F004021A671A6F42F001021A67C5E743
:10160400FEF7B0FF0646074B1B6F13F0020F11D015
:10161400FEF7A8FF801B41F288339842F3D90320D8
:1016240069E000BF0038024000004742800E474294
:1016340000700040E5B9A369002B5BD0304A926882
:1016440002F00C02082A58D0022B17D02D4B00228E
:101654001A60FEF787FF0446294B1B6813F0007FCE
:1016640042D0FEF77FFF001B0228F5D9032042E099
:10167400234A136C23F080531364DCE7214B0022CC
:101684001A60FEF76FFF05461D4B1B6813F0007FC1
:1016940006D0FEF767FF401B0228F5D903202AE095
:1016A400E369226A1343626A43EA8213A26A520814
:1016B400013A43EA0243E26A43EA0263104A53608E
:1016C400104B01221A60FEF74DFF04460C4B1B68B9
:1016D40013F0007F06D1FEF745FF001B0228F5D961
:1016E400032008E0002006E0002004E00120704709
:1016F400012000E0002002B070BD0120FBE700BF24
:101704000038024060004742324B9B6803F00C03F0
:10171400042B5CD0082B01D02F4870472DE9F04BE7
:101724002C4B5A6802F03F025B6813F4800F2BD0F5
:10173400284B5B68C3F388131E4600275C01002511
:10174400E41A65EB0705A90141EA9461A001001BB5
:1017540061EB0501CB0043EA5073C400A01943EBCD
:1017640007014B0243EAD0534402204619460023A2
:10177400FEF72EFD174B5B68C3F3014301335B0097
:10178400B0FBF3F0BDE8F08B124B5B68C3F3881336
:101794001E4600275C010025E41A65EB0705A90134
:1017A40041EA9461A001001B61EB0501CB0043EA0F
:1017B4005073C400A01943EB07018B0243EA905312
:1017C4008402204619460023FEF702FDD2E70348AF
:1017D400704700BF003802400024F40000127A0071
:1017E400002800F09D8070B504464F4B1B6803F041
:1017F4000F038B4209D2CBB24B4A1370136803F028
:101804000F038B4201D0012070BD236813F0020F37
:1018140017D013F0040F04D0444A936843F4E05300
:101824009360236813F0080F04D0404A936843F48C
:10183400604393603D4A936823F0F003A068034338
:1018440093600D46236813F0010F32D06368012BB7
:1018540021D09A1E012A25D9344A126812F0020FA7
:1018640060D032498A6822F0030213438B60FEF78A
:1018740079FE06462D4B9B6803F00C036268B3EBBC
:10188400820F16D0FEF76EFE801B41F28833984219
:10189400F0D90320B8E7254A126812F4003FE0D1DA
:1018A4000120B1E7214A126812F0007FD9D101204A
:1018B400AAE71D4B1B6803F00F03AB4209D9EAB238
:1018C400194B1A701B6803F00F03AB4201D00120BF
:1018D4009AE7236813F0040F06D0144A936823F49C
:1018E400E053E1680B439360236813F0080F07D0BB
:1018F4000E4A936823F46043216943EAC103936069
:10190400FFF702FF094B9B68C3F30313084AD35C38
:10191400D840084B18600020FEF7DAFD002073E77A
:101924000120704701206FE7003C0240003802406C
:10193400F028000808000020014B1868704700BF19
:101944000800002008B5FFF7F7FF044B9B68C3F3BA
:101954008223034AD35CD84008BD00BF003802404C
:101964000029000808B5FFF7E7FF044B9B68C3F3A1
:101974004233034AD35CD84008BD00BF003802405C
:10198400002900082DE9F84304460268136923F48A
:101994004053C1680B43136183680269134342696E
:1019A4001343C2691A430168CB6823F4164323F036
:1019B4000C031343CB600268536923F440738169B9
:1019C4000B435361C369B3F5004F60D00368B84A51
:1019D400934200F0148102F58062934200F00F817B
:1019E400FFF7B0FF00EB800000EB80006568AD00FE
:1019F400B0FBF5F5AF4FA7FB05356D092E01FFF7D9
:101A0400A1FF00EB800000EB80006568AD00B0FB37
:101A1400F5F9FFF797FF00EB800000EB80006568A5
:101A2400AD00B0FBF5F5A7FB05356D094FF0640873
:101A340008FB15952D013235A7FB05356D0905F019
:101A4400F0053544FFF77EFF00EB800000EB8000DB
:101A54006668B600B0FBF6F6FFF774FF00EB800093
:101A640000EB800063689B00B0FBF3F0A7FB003041
:101A7400400908FB10684FEA081808F13208A7FB70
:101A84000837C7F3431723682F449F600DE10368A9
:101A9400874A93425BD002F58062934257D0FFF7A6
:101AA40051FF00EB800000EB800065686D00B0FB27
:101AB400F5F5804FA7FB05356D092E01FFF742FFB1
:101AC40000EB800000EB800065686D00B0FBF5F969
:101AD400FFF738FF00EB800000EB800065686D00C5
:101AE400B0FBF5F5A7FB05356D094FF0640808FB5D
:101AF4001595ED003235A7FB05356D096D0005F42C
:101B0400F8753544FFF71EFF00EB800000EB800002
:101B140066687600B0FBF6F6FFF714FF00EB800072
:101B240000EB800063685B00B0FBF3F3A7FB0323C7
:101B34005B0908FB13684FEAC80808F13208A7FBE1
:101B44000837C7F3421723682F449F60ADE0FFF7BF
:101B540009FF00EB800000EB800065686D00B0FBBE
:101B6400F5F5544FA7FB05356D092E01FFF7FAFE75
:101B740000EB800000EB800065686D00B0FBF5F9B8
:101B8400FFF7F0FE00EB800000EB800065686D005D
:101B9400B0FBF5F5A7FB05356D094FF0640808FBAC
:101BA4001595ED003235A7FB05356D096D0005F47B
:101BB400F8753544FFF7D6FE00EB800000EB80009B
:101BC40066687600B0FBF6F6FFF7CCFE00EB80000B
:101BD40000EB800063685B00B0FBF3F3A7FB032317
:101BE4005B0908FB13684FEAC80808F13208A7FB31
:101BF4000837C7F3421723682F449F6055E0FFF767
:101C0400B1FE00EB800000EB80006568AD00B0FB26
:101C1400F5F5284FA7FB05356D092E01FFF7A2FE48
:101C240000EB800000EB80006568AD00B0FBF5F9C7
:101C3400FFF798FE00EB800000EB80006568AD00C4
:101C4400B0FBF5F5A7FB05356D094FF0640808FBFB
:101C540015952D013235A7FB05356D0905F0F00505
:101C64003544FFF77FFE00EB800000EB80006668E0
:101C7400B600B0FBF6F6FFF775FE00EB800000EB54
:101C8400800063689B00B0FBF3F0A7FB00304009C1
:101C940008FB10684FEA081808F13208A7FB083758
:101CA400C7F3431723682F449F60BDE8F88300BF40
:101CB400001001401F85EB512DE9F04105460F4608
:101CC40016469846069C2B681B6837EA03030CBF2C
:101CD40001230023B3421DD1B4F1FF3FF3D02CB153
:101CE400FEF740FCA0EB0800A042ECD92A68D368B8
:101CF40023F4D073D3602A68536923F0010353613A
:101D0400202385F8393085F83A30002385F83830B7
:101D1400032000E00020BDE8F08158B310B504466C
:101D240090F839300BB3242384F839302268D3680F
:101D340023F40053D3602046FFF724FE226813697E
:101D440023F4904313612268536923F02A035361F7
:101D54002268D36843F40053D3600020E063202357
:101D640084F8393084F83A3010BD80F8383000F007
:101D74009BFCD8E7012070472DE9F04182B01E4654
:101D840090F83930DBB2202B55D104460D469046ED
:101D9400002955D0002A55D090F83830012B53D063
:101DA400012380F838300023C363212380F83930BD
:101DB400FEF7D8FB0746A4F82480A4F8268010E098
:101DC40000963B46002280212046FFF775FF00283D
:101DD4003CD12B882268C3F3080353602369C3B939
:101DE4000235E38C9BB2B3B1E38C013B9BB2E38439
:101DF400A368B3F5805FE3D000963B4600228021C0
:101E04002046FFF759FF18BB2A7823685A6001352A
:101E1400E7E70135E5E700963B46002240212046EE
:101E2400FFF74AFF0346A8B9202284F8392000228C
:101E340084F8382000E00223184602B0BDE8F0819F
:101E44000123F9E70123F7E70223F5E70323F3E787
:101E54000323F1E70323EFE730B58BB000240594A7
:101E640006940794089409940194224B1A6B42F047
:101E740004021A631A6B02F004020192019A02949A
:101E84001A6B42F080021A631A6B02F0800202920B
:101E9400029A03941A6B42F001021A631A6B02F05D
:101EA40001020392039A04941A6B42F002021A6329
:101EB4001B6B03F002030493049B0F4D2246202165
:101EC4002846FEF797FC4FF4005305930B4B0693FB
:101ED400079405A90A48FEF7BBFB202305930123B9
:101EE40006930794089405A92846FEF7B1FB0BB0A6
:101EF40030BD00BF00380240000002400000211045
:101F04000008024008B50948094B0360094B4360C7
:101F140000238360C3604FF48042026143618361A4
:101F2400C3610362FEF770FE08BD00BF2C000020F1
:101F340000540040A086010008B50848084B03601F
:101F44004FF4E133436000238360C36003610C22D8
:101F540042618361C361FFF7E0FE08BD8000002099
:101F64000044004030B595B03022002108A800F0AC
:101F74006BFC002403940494059406940794019440
:101F84001B4B1A6C42F080521A641B6C03F0805392
:101F94000193019B0294174A136823F4404343F4CA
:101FA40000431360136803F440430293029B022529
:101FB400089501230B9310230C930E950F94109303
:101FC4004FF4A8731193042312930723139308A8BF
:101FD400FFF7CEF90F230393049505944FF4805330
:101FE40006930794294603A8FFF7FAFB15B030BD02
:101FF40000380240007000402DE9F04F2DED028BB7
:1020040091B08C4B0CAC0FCB07C424F8023B1B0CD7
:10201400237007AC884D0FCD0FC42B682370FEF7D7
:102024007BFAFFF79FFFFFF717FFFFF76BFFFFF741
:1020340083FFE8E04FF6FF73112207A97F48FFF7FB
:102044009BFE7F4E7D4C4FF6FF73022231462046A5
:10205400FFF792FE4FF4FA60FEF78AFA794D7A4F51
:102064002946384600F08AFA95ED068A294638460C
:1020740000F04CFAB5F912A0B5F91490B5F9168030
:102084002946384600F00BFAB5F90CB0B5F90E70D4
:10209400B5F910504FF6FF7305226C492046FFF73F
:1020A4006BFE0A2203A9504600F0CCFB4FF6FF73E7
:1020B400022203A92046FFF75FFE4FF6FF730222B8
:1020C40031462046FFF758FE4FF6FF73052260495C
:1020D4002046FFF751FE0A2203A9484600F0B2FB4E
:1020E4004FF6FF73022203A92046FFF745FE4FF681
:1020F400FF73022231462046FFF73EFE4FF6FF7380
:10210400052254492046FFF737FE0A2203A9404618
:1021140000F098FB4FF6FF73022203A92046FFF755
:102124002BFE4FF6FF73022231462046FFF724FEB2
:102134004FF6FF73062248492046FFF71DFE0A2288
:1021440003A9FDEEC87A17EE900A00F07BFB4FF668
:10215400FF73022203A92046FFF70EFE4FF6FF731A
:10216400022231462046FFF707FE4FF6FF73052291
:102174003A492046FFF700FE0A2203A9584600F018
:1021840061FB4FF6FF73022203A92046FFF7F4FD1B
:102194004FF6FF73022231462046FFF7EDFD4FF65E
:1021A400FF7305222E492046FFF7E6FD0A2203A904
:1021B400384600F047FB4FF6FF73022203A920467E
:1021C400FFF7DAFD4FF6FF73022231462046FFF790
:1021D400D3FD4FF6FF73052222492046FFF7CCFDBD
:1021E4000A2203A9284600F02DFB4FF6FF730222B2
:1021F40003A92046FFF7C0FD4FF6FF7302223146C4
:102204002046FFF7B9FD0022009213460D490E48FF
:1022140000F0ECF804464FF4FA70FEF7A9F9002C2C
:102224007FF408AF4FF6FF730F220CA90348FFF7A2
:10223400A3FD06E744290008542900088000002073
:1022440008290008C00000202C0000200C290008E8
:10225400142900081C290008242900082C29000836
:10226400342900083C29000830B585B005460C78AF
:1022740019238DF80C308DF80D204FF47A730093E8
:10228400022303AA21462846FEF78EFD0028F4D136
:1022940005B030BD2DE9F04184B005460F46164621
:1022A40091F800801C238DF80E301FFA88F44FF447
:1022B4007A73009301230DF10E0221462846FEF79E
:1022C40073FD0028F1D14FF47A73009301230DF1CB
:1022D4000F0221462846FEF721FE0028F3D19DF87F
:1022E4000F3023F018035BB243EAC6038DF80F30B6
:1022F4004FF47A73009301230DF10F02214628460F
:10230400FEF752FD0028F3D1032E06D8DFE806F0CD
:1023140002090D114FF06253BB60002004B0BDE808
:10232400F0814FF06453BB60F7E74FF06653BB6036
:10233400F3E74FF06853BB60EFE700002DE9F0418D
:1023440084B005460F46164691F800801B238DF88D
:102354000E301FFA88F44FF47A73009301230DF1C1
:102364000E0221462846FEF71FFD0028F1D14FF446
:102374007A73009301230DF10F0221462846FEF7DC
:10238400CDFD0028F3D19DF80F3023F018035BB284
:1023940043EAC6038DF80F304FF47A730093012398
:1023A4000DF10F0221462846FEF7FEFC0028F3D16A
:1023B400032E05D8DFE806F002080B0E074B7B60FE
:1023C400002004B0BDE8F081054B7B60F8E7054BC5
:1023D4007B60F5E7044B7B60F2E700BF2D23FA3BFB
:1023E4002D237A3C90C1F93C90C1793DF0B585B07C
:1023F40006460D461F4675238DF80F3042F0D00275
:102404000A7094B2052302222146FEF7EFFE10B1B2
:10241400012005B0F0BD4FF47A73009301230DF150
:102424000F0221463046FEF7BFFC08B10120F0E759
:102434004FF47A73009301230DF10E0221463046C6
:10244400FEF76CFD48BB9DF80E30682B01D00320CD
:10245400DFE76B238DF80C3000238DF80D304FF43B
:102464007A730093022303AA21463046FEF79CFCAC
:1024740008B10120CDE7072229463046FFF7F4FED4
:102484003A4629463046FFF705FF9DF8282029469D
:102494003046FFF753FF0020BBE70120B9E7F0B552
:1024A40087B005460F463B238DF80F300E78B4B243
:1024B4004FF47A73009301230DF10F02214628464D
:1024C400FEF772FC0028F2D14FF47A7300930623CE
:1024D40004AA21462846FEF721FD0028F4D19DF8E0
:1024E40010209DF8113043EA0223BB819DF812208D
:1024F4009DF8133043EA0223FB819DF814209DF8D4
:10250400153043EA02233B8207B0F0BDF0B587B033
:1025140005460F4643238DF80F300E78B4B24FF4BE
:102524007A73009301230DF10F0221462846FEF72A
:102534003BFC0028F2D14FF47A730093062304AADB
:1025440021462846FEF7EAFC0028F4D19DF8102025
:102554009DF8113043EA02237B829DF812209DF8F6
:10256400133043EA0223BB829DF814209DF81530F2
:1025740043EA0223FB8207B0F0BD0000F0B585B04A
:1025840005460E4641238DF80B300F78BCB24FF44C
:102594007A73009301230DF10B0221462846FEF7BE
:1025A40003FC0028F2D14FF47A730093022303AAA8
:1025B40021462846FEF7B2FC0028F4D19DF80C30E1
:1025C4001B021BB29DF80D20134307EE903AF8EE60
:1025D400E77ADFED066A87EEA67ADFED057A77EE15
:1025E400277AC6ED067A05B0F0BD00BF0000AA4305
:1025F400B81E124200B583B0002100910C4B5A6CF6
:1026040042F480425A645A6C02F480420092009A66
:1026140001911A6C42F080521A641B6C03F08053CF
:102624000193019B0720FDF7B7FF03B05DF804FB9E
:102634000038024030B589B0002303930493059316
:10264400069307930268154B9A4201D009B030BD36
:1026540000250195124C236B43F002032363236B83
:1026640003F002030193019BC023039312230493F9
:1026740001230593032306930423079303A909481D
:10268400FDF7E6FF0295236C43F400132364236CE7
:1026940003F400130293029BD8E700BF00540040E8
:1026A400003802400004024000B589B000230393BF
:1026B40004930593069307930268144B9A4202D03D
:1026C40009B05DF804FB0021019103F5FA331A6C9B
:1026D40042F400321A641A6C02F400320192019A34
:1026E40002911A6B42F001021A631B6B03F001039F
:1026F4000293029B0C23039302230493072307935F
:1027040003A90348FDF7A4FFDAE700BF0044004033
:10271400000002407047FEE7FEE7FEE7FEE7704771
:102724007047704708B5FDF711FF08BD0F49D1F890
:10273400883043F47003C1F888300D4B1A6842F0B6
:1027440001021A60002098601A6822F0847222F450
:1027540080321A60074A5A601A6822F480221A608A
:10276400D8604FF000638B60704700BF00ED00E05D
:102774000038024010300024DFF834D0002103E098
:102784000C4B5B58435004310B480C4B42189A4293
:10279400F6D30B4A02E0002342F8043B094B9A4269
:1027A400F9D3FFF7C3FF00F011F8FFF725FC7047DA
:1027B40000800120A0290008000000200C00002057
:1027C4000C000020DC000020FEE7000070B50D4E78
:1027D4000D4CA41BA4100025A54209D10B4E0C4C92
:1027E40000F078F8A41BA4100025A54205D170BD03
:1027F40056F8253098470135EEE756F825309847C6
:102804000135F2E79829000898290008982900085A
:102814009C290008931E222B10B50C4604D90023D2
:102824000B701C46204610BD0A2A09D1002807DA7D
:102834002D230B7040420121214400F00DF8F1E7F3
:102844000021F9E7FFF7E6BF02440346934200D1B3
:10285400704703F8011BF9E7F0B51D4B8BB0054633
:102864000C466E4603F1200C18685968374603C7B6
:10287400083363453E46F7D118681B793B71931EB4
:10288400222B38604FF0000304D923701C462046E5
:102894000BB0F0BD661EB5FBF2F00AAF02FB10559B
:1028A4003D44591C15F8285C06F8015F054668B9D3
:1028B400605423442246191B101B8142E7DD117822
:1028C400187802F8010B03F80119F4E70B46E2E764
:1028D40068290008F8B500BFF8BC08BC9E467047DC
:0C28E400F8B500BFF8BC08BC9E46704769
:1028F00000000000000000000102030406070809B0
:1029000000000000010203040A0D0000675F783D2B
:1029100020000000675F793D20000000675F7A3D7E
:102920002000000074656D703D200000615F783DFF
:1029300020000000615F793D20000000615F7A3D6A
:10294000200000004D505520574F524B2046494E15
:10295000450A00004D5055204E4F5420574F524BC2
:10296000494E470A000000003031323334353637E3
:1029700038396162636465666768696A6B6C6D6E3D
:102980006F707172737475767778797A00000000D1
:0829900074D8FF7F0100000074
:04299800B901000879
:04299C009501000899
:0C29A00001000000100000000024F40002
:040000050800277D4B
:00000001FF
